{
  "contractName": "Template",
  "abi": [
    {
      "constant": false,
      "inputs": [
        {
          "internalType": "uint256",
          "name": "_number",
          "type": "uint256"
        }
      ],
      "name": "setNumber",
      "outputs": [],
      "payable": false,
      "stateMutability": "nonpayable",
      "type": "function"
    },
    {
      "constant": true,
      "inputs": [],
      "name": "getNumber",
      "outputs": [
        {
          "internalType": "uint256",
          "name": "",
          "type": "uint256"
        }
      ],
      "payable": false,
      "stateMutability": "view",
      "type": "function"
    },
    {
      "constant": true,
      "inputs": [],
      "name": "ping",
      "outputs": [
        {
          "internalType": "uint256",
          "name": "",
          "type": "uint256"
        }
      ],
      "payable": false,
      "stateMutability": "view",
      "type": "function"
    }
  ],
  "bytecode": "0x608060405234801561001057600080fd5b5060c08061001f6000396000f3fe6080604052348015600f57600080fd5b5060043610603c5760003560e01c80633fb5c1cb1460415780635c36b18614605d578063f2c9ecd8146075575b600080fd5b605b60048036036020811015605557600080fd5b5035607b565b005b60636080565b60408051918252519081900360200190f35b60636085565b600055565b602a90565b6000549056fea265627a7a723158205606f385269c9e4eb63ba1174ae10d19b9ca09cfbb80e3d08a72a7a92dca101964736f6c63430005100032",
  "source": "pragma solidity >=0.4.21 <0.6.0;\r\n\r\ncontract Template {\r\n    uint number;\r\n\r\n    function setNumber(uint _number) public {\r\n        number = _number;\r\n    }\r\n\r\n    function getNumber() external view returns (uint){\r\n        return number;\r\n    }\r\n\r\n    function ping() external view returns (uint) {\r\n        return 42;\r\n    }\r\n}\r\n",
  "sourcePath": "D:/Projects/Webstorm Projects/template-ethereum-express-server/src/ethereum/contracts/template.sol",
  "compiler": {
    "name": "solc",
    "version": "0.5.16+commit.9c3226ce.Emscripten.clang"
  },
  "schemaVersion": "3.3.2",
  "updatedAt": "2020-11-11T23:02:24.641Z",
  "networkType": "ethereum",
  "devdoc": {
    "methods": {}
  },
  "userdoc": {
    "methods": {}
  }
}